{
  "contractName": "SimpleStorage",
  "abi": [
    {
      "inputs": [],
      "name": "getVariable",
      "outputs": [
        {
          "internalType": "uint256",
          "name": "",
          "type": "uint256"
        }
      ],
      "stateMutability": "view",
      "type": "function"
    },
    {
      "inputs": [
        {
          "internalType": "uint256",
          "name": "_variable",
          "type": "uint256"
        }
      ],
      "name": "setVariable",
      "outputs": [],
      "stateMutability": "nonpayable",
      "type": "function"
    }
  ],
  "bytecode": "0x608060405234801561001057600080fd5b50610150806100206000396000f3fe608060405234801561001057600080fd5b50600436106100365760003560e01c8063506ef65c1461003b57806386be3f8014610059575b600080fd5b610043610075565b60405161005091906100a1565b60405180910390f35b610073600480360381019061006e91906100ed565b61007e565b005b60008054905090565b8060008190555050565b6000819050919050565b61009b81610088565b82525050565b60006020820190506100b66000830184610092565b92915050565b600080fd5b6100ca81610088565b81146100d557600080fd5b50565b6000813590506100e7816100c1565b92915050565b600060208284031215610103576101026100bc565b5b6000610111848285016100d8565b9150509291505056fea2646970667358221220f4f98c69bcd8b683c6067e0197e8593f566f76338e8d4fcdd6a4619cef4e518e64736f6c634300080a0033",
  "immutableReferences": {},
  "source": "pragma solidity ^0.8.0;\r\n\r\n\r\ncontract SimpleStorage{\r\n    uint variable;\r\n\r\n    function getVariable() external view returns(uint) {\r\n        return variable;\r\n    }\r\n\r\n    function setVariable(uint _variable) external{\r\n        variable = _variable;\r\n    }\r\n}",
  "sourcePath": "C:\\laragon\\www\\Blockchain\\crc20\\contracts\\simpleStorage.sol",
  "compiler": {
    "name": "solc",
    "version": "0.8.10+commit.fc410830.Emscripten.clang"
  },
  "schemaVersion": "3.4.4",
  "updatedAt": "2021-12-21T19:01:03.181Z",
  "devdoc": {
    "kind": "dev",
    "methods": {},
    "version": 1
  },
  "userdoc": {
    "kind": "user",
    "methods": {},
    "version": 1
  }
}